:040000000DEF00F010
:040008004CEF15F0B4
:10001800FF0076EF16F0DCC060F0DDC061F0000E86
:100028000001636F3C0E626FACEC16F060C0B0F07C
:1000380061C0B1F0DEC060F0DFC061F0FF0E00010A
:10004800636FC40E626FACEC16F000016051B0270C
:100058006151B123D851B05FD951B15BD651B025A8
:10006800C26FD751B121C36FEC51EA5D606FED519A
:10007800EB59616F55EC16F0000160C066F061C085
:1000880067F0000E67BFFF0E686F696F010E14EC12
:100098000EF066C0B6F067C0B7F068C0B8F069C0C7
:1000A800B9F0F1C078F0F2C079F0F3C07AF0F4C09A
:1000B8007BF0B6C074F0B7C075F0B8C076F0B9C0C0
:1000C80077F0E2EC02F074C08DF075C08EF076C067
:1000D8008FF077C090F0000E0001636F3C0E626FE6
:1000E800C2C060F0C3C061F0ACEC16F0000160C0A3
:1000F80066F061C067F0000E67BFFF0E686F696F3A
:10010800010E14EC0EF066C091F067C092F068C062
:1001180093F069C094F031EC07F08DC04BF18EC0BC
:100128004CF18FC04DF190C04EF151C078F052C0E3
:1001380079F053C07AF054C07BF0B6C074F0B7C001
:1001480075F0B8C076F0B9C077F0E2EC02F074C090
:10015800B2F075C0B3F076C0B4F077C0B5F0000E59
:100168000001786F000E796F000E7A6F400E7B6F7A
:10017800B2C074F0B3C075F0B4C076F0B5C077F013
:10018800E2EC02F074C0A6F075C0A7F076C0A8F043
:1001980077C0A9F088EC10F0A6C0C6F0A7C0C7F0D9
:1001A800DAC060F0DBC061F0000E0001636F3C0E46
:1001B800626FACEC16F060C0B0F061C0B1F0DCC0AA
:1001C80060F0DDC061F0FF0E0001636FC40E626F66
:1001D800ACEC16F000016051B0276151B123D65143
:1001E800B05FD751B15BD451B025C46FD551B1219F
:1001F800C56FEA51E85D606FEB51E959616F55ECE5
:1002080016F0000160C066F061C067F0000E67BFBD
:10021800FF0E686F696F010E14EC0EF066C0BAF03D
:1002280067C0BBF068C0BCF069C0BDF0F1C078F031
:10023800F2C079F0F3C07AF0F4C07BF0BAC074F081
:10024800BBC075F0BCC076F0BDC077F0E2EC02F040
:1002580074C08DF075C08EF076C08FF077C090F0C6
:10026800000E0001636F3C0E626FC4C060F0C5C031
:1002780061F0ACEC16F0000160C066F061C067F098
:10028800000E67BFFF0E686F696F010E14EC0EF069
:1002980066C091F067C092F068C093F069C094F0AE
:1002A80031EC07F08DC04FF18EC050F18FC051F185
:1002B80090C052F151C078F052C079F053C07AF032
:1002C80054C07BF0BAC074F0BBC075F0BCC076F007
:1002D800BDC077F0E2EC02F074C0B2F075C0B3F0C4
:1002E80076C0B4F077C0B5F0000E0001786F000E4C
:1002F800796F000E7A6F400E7B6FB2C074F0B3C096
:1003080075F0B4C076F0B5C077F0E2EC02F074C0D6
:10031800A6F075C0A7F076C0A8F077C0A9F088EC61
:1003280010F0A6C0C8F0A7C0C9F0E0C066F0E1C0F0
:1003380067F00001000E67BFFF0E686F696F010E5E
:1003480014EC0EF066C0BEF067C0BFF068C0C0F025
:1003580069C0C1F0F1C078F0F2C079F0F3C07AF06A
:10036800F4C07BF0BEC074F0BFC075F0C0C076F0BA
:10037800C1C077F0E2EC02F074C08DF075C08EF069
:1003880076C08FF077C090F0000E0001636F1E0EEC
:10039800626FC251C425606FC351C521616FACEC57
:1003A80016F0000160C066F061C067F0000E67BF1C
:1003B800FF0E686F696F010E14EC0EF066C091F0C5
:1003C80067C092F068C093F069C094F031EC07F010
:1003D8008DC053F18EC054F18FC055F190C056F1C5
:1003E80051C078F052C079F053C07AF054C07BF015
:1003F800BEC074F0BFC075F0C0C076F0C1C077F061
:10040800E2EC02F074C0B2F075C0B3F076C0B4F09C
:1004180077C0B5F0000E0001786F000E796F000EFE
:100428007A6F400E7B6FB2C074F0B3C075F0B4C081
:1004380076F0B5C077F0E2EC02F074C0A6F075C0B3
:10044800A7F076C0A8F077C0A9F088EC10F0A6C095
:10045800E4F0A7C0E5F00001ED5109E1B50EEC5D4F
:10046800D8A039EF02F03BEF02F047EF02F0010E9F
:100478004B6EEC516808E26FED51D8A0E82A0108EC
:10048800E36F4DEF02F0000E4B6EECC0E2F0EDC0F2
:10049800E3F051C078F052C079F053C07AF054C0FC
:1004A8007BF0E2C066F0E3C067F0686B696B000E32
:1004B80014EC0EF066C074F067C075F068C076F092
:1004C80069C077F0E2EC02F074C0B2F075C0B3F026
:1004D80076C0B4F077C0B5F0000E0001786F000E5A
:1004E800796F000E7A6F400E7B6FB2C074F0B3C0A4
:1004F80075F0B4C076F0B5C077F0E2EC02F074C0E5
:10050800A6F075C0A7F076C0A8F077C0A9F088EC6F
:1005180010F0A6C0E6F0A7C0E7F04B50D8A497EFBC
:1005280002F099EF02F0A4EF02F0000E366E000E12
:10053800376E000E386E000E396EBB90CAEF02F0AF
:10054800000E0001786F000E796FB40E7A6F430EBB
:100558007B6F51C074F052C075F053C076F054C030
:1005680077F0E2EC02F074C0A6F075C0A7F076C090
:10057800A8F077C0A9F088EC10F0A6C036F0A7C0A4
:1005880037F0A8C038F0A9C039F0BB80000E0101CF
:10059800476F000E486F000E496F000E4A6F000E3D
:1005A8000001CE6F000ECF6F000ED06F000ED16F1E
:1005B800010E4C6EBA84020EEF6F120000017751E3
:1005C800800B806F77517725866F76AFEEEF02F05C
:1005D800F0EF02F0F1EF02F086818651D8B4F7EF20
:1005E80002F0F9EF02F00CEF03F08629D8A4FFEF30
:1005F80002F001EF03F009EF03F0000E746F000E34
:10060800756F000E766F000E776F768F14EF03F01C
:10061800000E746F000E756F000E766F000E776F08
:100628007B51800B801B7B517B25816F7AAF1FEF3D
:1006380003F021EF03F022EF03F081818151D8B458
:1006480028EF03F02AEF03F03DEF03F08129D8A447
:1006580030EF03F032EF03F03AEF03F0000E786F5B
:10066800000E796F000E7A6F000E7B6F7A8F45EF60
:1006780003F0000E786F000E796F000E7A6F000E8F
:100688007B6F8151D8B44BEF03F04DEF03F055EF7A
:1006980003F08651D8A453EF03F055EF03F05FEF52
:1006A80003F0000E746F000E756F000E766F000E6B
:1006B800776F09EF05F07A5174036F00CCFF8BF068
:1006C8006F00D0FF8CF08B51826F836B846B856BCE
:1006D8008C51876F886B896B8A6B795175036F00B2
:1006E800CCFF8BF06F00D0FF8CF08B518227000E6F
:1006F8008323842385238C518727000E882389230D
:100708008A23785176036F00CCFF8BF06F00D0FFFF
:100718008CF08B518227000E8323842385238C51F0
:100728008727000E882389238A2384C085F083C005
:1007380084F082C083F0826B785175036F00CCFF20
:100748008BF06F00D0FF8CF08B5182278C51832364
:10075800000E8423000E8523795174036F00CCFFAB
:100768008BF06F00D0FF8CF08B5182278C51832344
:10077800000E8423000E852384C085F083C084F096
:1007880082C083F0826B785174036F00CCFF8BF0CA
:100798006F00D0FF8CF08B5182278C518323000E81
:1007A8008423000E85237A5175036F00CCFF8BF0EC
:1007B8006F00D0FF8CF08B5187278C518823000E57
:1007C8008923000E8A23795176036F00CCFF8BF0C2
:1007D8006F00D0FF8CF08B5187278C518823000E37
:1007E8008923000E8A237A5176036F00CCFF8BF0A1
:1007F8006F00D0FF8CF08B517C6F8C517D6F7E6BBE
:100808007F6B7EC07FF07DC07EF07CC07DF07C6B0E
:100818007C5187277D5188237E5189237F518A23E4
:1008280082C07CF083C07DF084C07EF085C07FF0FC
:10083800190E24EF04F0D8907F337E337D337C3358
:10084800E82E1FEF04F07C5187277D5188237E51C5
:1008580089237F518A2384C085F083C084F082C0B5
:1008680083F0826B815186C07CF07D6B7C27000E03
:100878007D23820E7C258B6FFF0E7D218C6F5AEFB6
:1008880004F0D8908737883789378A3785AF4FEF94
:1008980004F051EF04F052EF04F08781D8908237CA
:1008A8008337843785378B07D8A08C0789AF5FEFEC
:1008B80004F061EF04F045EF04F0000E816F85AF9E
:1008C80068EF04F06AEF04F08EEF04F0FF0E821573
:1008D8007C6FFF0E83157D6FFF0E84157E6F7F0E74
:1008E80085157F6F7C517D117E117F11D8B47FEF04
:1008F80004F081EF04F085EF04F0010E816F8EEFB4
:1009080004F087A18AEF04F08CEF04F08EEF04F076
:1009180081EF04F08151D8B494EF04F096EF04F01D
:10092800BAEF04F0010E8727000E882389238A2353
:100938008AA1A1EF04F0A3EF04F0BAEF04F087C096
:100948007CF088C07DF089C07EF08AC07FF07F355A
:100958007F337E337D337C337CC087F07DC088F065
:100968007EC089F07FC08AF08B4B8C2B8CBFC5EF83
:1009780004F08C5108E18B29D8A0C5EF04F0C7EF2B
:1009880004F0D1EF04F0000E876F000E886F800E20
:10099800896F7F0E8A6FFFEF04F08CBFDEEF04F0E3
:1009A8008C5106E18B05D8B0DCEF04F0DEEF04F0E3
:1009B800EAEF04F0000E876F000E886F000E896F53
:1009C800000E8A6F000E806FFFEF04F08BC086F078
:1009D800FF0E8717FF0E88177F0E8917000E8A17DC
:1009E80086A1F9EF04F0FBEF04F0FCEF04F0898F27
:1009F800D89086318A6F80518A1387C074F088C076
:100A080075F089C076F08AC077F012000450800B28
:100A18000D6E04500424136E03AE15EF05F017EFA6
:100A280005F018EF05F013801350D8B41EEF05F049
:100A380020EF05F033EF05F01328D8A426EF05F0D2
:100A480028EF05F030EF05F0000E016E000E026E83
:100A5800000E036E000E046E038E3BEF05F0000ED1
:100A6800016E000E026E000E036E000E046E08503A
:100A7800800B0D1A08500824126E07AE46EF05F0D9
:100A880048EF05F049EF05F012801250D8B44FEF47
:100A980005F051EF05F064EF05F01228D8A457EFE0
:100AA80005F059EF05F061EF05F0000E056E000E38
:100AB800066E000E076E000E086E078E6CEF05F0CE
:100AC800000E056E000E066E000E076E000E086E14
:100AD8001250D8B472EF05F074EF05F07CEF05F012
:100AE8001350D8A47AEF05F07CEF05F086EF05F0F7
:100AF800000E016E000E026E000E036E000E046EF4
:100B080030EF07F0075001026F00CCFF18F06F00BC
:100B1800D0FF19F018500E6E0F6A106A116A19503A
:100B2800146E156A166A176A065002026F00CCFF27
:100B380018F06F00D0FF19F018500E26000E0F2283
:100B48001022112219501426000E152216221722DF
:100B5800055003026F00CCFF18F06F00D0FF19F0AA
:100B680018500E26000E0F2210221122195014269A
:100B7800000E15221622172210C011F00FC010F017
:100B88000EC00FF00E6A055002026F00CCFF18F07D
:100B98006F00D0FF19F018500E2619500F22000EC2
:100BA8001022000E1122065001026F00CCFF18F02F
:100BB8006F00D0FF19F018500E2619500F22000EA2
:100BC8001022000E112210C011F00FC010F00EC03C
:100BD8000FF00E6A055001026F00CCFF18F06F008D
:100BE800D0FF19F018500E2619500F22000E1022AF
:100BF800000E1122075002026F00CCFF18F06F00A0
:100C0800D0FF19F01850142619501522000E16227C
:100C1800000E1722065003026F00CCFF18F06F0079
:100C2800D0FF19F01850142619501522000E16225C
:100C3800000E1722075003026F00CCFF18F06F0058
:100C4800D0FF19F01850096E19500A6E0B6A0C6A19
:100C58000BC00CF00AC00BF009C00AF0096A095071
:100C680014260A5015220B5016220C5017220EC0BB
:100C780009F00FC00AF010C00BF011C00CF0190EEB
:100C88004BEF06F0D8900C320B320A320932E82EBC
:100C980046EF06F0095014260A5015220B5016226A
:100CA8000C50172210C011F00FC010F00EC00FF03A
:100CB8000E6A125013C009F00A6A0926000E0A22A9
:100CC800820E0924186EFF0E0A20196E81EF06F0B5
:100CD800D890143615361636173611AE76EF06F05C
:100CE80078EF06F079EF06F01480D8900E360F36BC
:100CF800103611361806D8A0190616AE86EF06F07B
:100D080088EF06F06CEF06F0000E126E11AE8FEF52
:100D180006F091EF06F0B5EF06F0FF0E0E14096E1F
:100D2800FF0E0F140A6EFF0E10140B6E7F0E1114B7
:100D38000C6E09500A100B100C10D8B4A6EF06F070
:100D4800A8EF06F0ACEF06F0010E126EB5EF06F054
:100D580014A0B1EF06F0B3EF06F0B5EF06F0A8EF78
:100D680006F01250D8B4BBEF06F0BDEF06F0E1EF85
:100D780006F0010E1426000E15221622172217A0BF
:100D8800C8EF06F0CAEF06F0E1EF06F014C009F06C
:100D980015C00AF016C00BF017C00CF00C340C325A
:100DA8000B320A32093209C014F00AC015F00BC020
:100DB80016F00CC017F0184A192A19BEECEF06F005
:100DC800195008E11828D8A0ECEF06F0EEEF06F06D
:100DD800F8EF06F0000E146E000E156E800E166EFB
:100DE8007F0E176E26EF07F019BE05EF07F01950B2
:100DF80006E11804D8B003EF07F005EF07F011EF8C
:100E080007F0000E146E000E156E000E166E000E22
:100E1800176E000E0D6E26EF07F018C013F0FF0EC8
:100E28001416FF0E15167F0E1616000E171613A0B1
:100E380020EF07F022EF07F023EF07F0168ED89087
:100E48001330176E0D50171214C001F015C002F0C0
:100E580016C003F017C004F0120000019051800B77
:100E68009D6F90519025A46F8FAF3DEF07F03FEF36
:100E780007F040EF07F0A481A451D8B446EF07F07B
:100E880048EF07F05DEF07F0A429D8A44EEF07F06C
:100E980050EF07F058EF07F0000E8D6F000E8E6FC1
:100EA800000E8F6F000E906F8F8F000E906F65EFA2
:100EB80007F0000E8D6F000E8E6F000E8F6F000E04
:100EC800906F9451800B9D1B94519425A56F93AFFF
:100ED80070EF07F072EF07F073EF07F0A581A551E7
:100EE800D8B479EF07F07BEF07F090EF07F0A5296A
:100EF800D8A481EF07F083EF07F08BEF07F0000E1F
:100F0800916F000E926F000E936F000E946F938F87
:100F1800000E946F98EF07F0000E916F000E926F1D
:100F2800000E936F000E946F9151921193119411CA
:100F3800D8A4A1EF07F0A3EF07F0BBEF07F0000E6E
:100F48008D6F000E8E6F000E8F6F000E906F800EEB
:100F58008F137F0E90139D5190138DC08DF08EC00E
:100F68008EF08FC08FF090C090F0FEEF08F0A45183
:100F7800D8A4C1EF07F0C3EF07F0CDEF07F0000EDC
:100F88008D6F000E8E6F000E8F6F000E906FFEEF4C
:100F980008F0A551A4C095F0966B955F000E965B7E
:100FA8007F0E95259E6F000E96219F6F8DC099F03C
:100FB8008EC09AF08FC09BF090C09CF0000E8D6F91
:100FC800000E8E6F000E8F6F000E906F000EA06FD8
:100FD800000EA16F000EA26F000EA36F000EA56F8A
:100FE8002EEF08F0A551D8B4FCEF07F0FEEF07F09C
:100FF80015EF08F0D89099379A379B379C37D890D7
:101008008D378E378F379037A3AF0DEF08F00FEF7E
:1010180008F010EF08F08D81D890A037A137A237DB
:10102800A3379151995D92519A5993519B59945173
:101038009C59D8A022EF08F024EF08F02DEF08F013
:10104800A38D9151995F92519A5B93519B5B9451F7
:101058009C5BA52B190EA56534EF08F036EF08F058
:10106800F6EF07F099519A119B119C11D8B43FEFF4
:1010780008F041EF08F059EF08F0A08159EF08F0A7
:10108800D8908D378E378F379037A3AF4EEF08F053
:1010980050EF08F051EF08F08D81D890A037A137B4
:1010A800A237A3379E07D8A09F078FAF5EEF08F03F
:1010B80060EF08F044EF08F0000EA56FA3AF67EFEC
:1010C80008F069EF08F08DEF08F0FF0EA015956F96
:1010D800FF0EA115966FFF0EA215976F7F0EA31531
:1010E800986F9551961197119811D8B47EEF08F022
:1010F80080EF08F084EF08F0010EA56F8DEF08F07F
:101108008DA189EF08F08BEF08F08DEF08F080EFE4
:1011180008F0A551D8B493EF08F095EF08F0B9EFAF
:1011280008F0010E8D27000E8E238F23902390A1A7
:10113800A0EF08F0A2EF08F0B9EF08F08DC095F025
:101148008EC096F08FC097F090C098F0983598337D
:1011580097339633953395C08DF096C08EF097C02F
:101168008FF098C090F09E4B9F2B9FBFC4EF08F064
:101178009F5108E19E29D8A0C4EF08F0C6EF08F0F7
:10118800D1EF08F0000E9F6F9E69000E8D6F000E64
:101198008E6F000E8F6F000E906F9FBFDEEF08F00E
:1011A8009F5106E19E05D8B0DCEF08F0DEEF08F0AD
:1011B800ECEF08F0000E9F6F000E9E6F000E8D6F13
:1011C800000E8E6F000E8F6F000E906F000E9D6FD9
:1011D8009EC0A4F0A4A1F3EF08F0F5EF08F0F8EF33
:1011E80008F08F8FF9EF08F08F9FD890A431906F97
:1011F800AFEF07F01200EEEC16F0D28E000E0001F1
:10120800EF6F660EFB6F660EFC6FE60EFD6F3D0E10
:10121800FE6F000E8D6F000E8E6F800E8F6F3F0E6B
:10122800906FFBC091F0FCC092F0FDC093F0FEC03F
:1012380094F031EC07F08DC051F08EC052F08FC0A1
:1012480053F090C054F0FBC091F0FCC092F0FDC088
:1012580093F0FEC094F0000E00018D6F000E8E6FAB
:10126800340E8F6F430E906F31EC07F08DC075F11F
:101278008EC076F18FC077F190C078F175C18DF08E
:1012880076C18EF077C18FF078C190F0D80E00014A
:10129800916F0F0E926F490E936F400E946F31EC61
:1012A80007F08DC06FF18EC070F18FC071F190C0E2
:1012B80072F1000E0001786F000E796F800E7A6F60
:1012C800400E7B6F6FC174F070C175F071C176F01C
:1012D80072C177F0E2EC02F074C08DF075C08EF048
:1012E80076C08FF077C090F0000E0001916F940ED9
:1012F800926F0E0E936F470E946F31EC07F08DC00E
:10130800F7F08EC0F8F08FC0F9F090C0FAF0330E05
:101318000001F16FFA0EF26F8E0EF36F3C0EF46F50
:10132800BB9ABA94BA966FC174F070C175F071C166
:1013380076F072C177F0290E786F5C0E796F8F0E98
:101348007A6F3D0E7B6FE2EC02F074C057F175C006
:1013580058F176C059F177C05AF1290E0001786F1B
:101368005C0E796F8F0E7A6F3D0E7B6FF7C074F04D
:10137800F8C075F0F9C076F0FAC077F0E2EC02F048
:1013880074C091F075C092F076C093F077C094F075
:10139800000E00018D6F000E8E6F800E8F6F3F0E56
:1013A800906F31EC07F08DC0A6F08EC0A7F08FC00B
:1013B800A8F090C0A9F088EC10F0A6C0F5F0A7C07E
:1013C800F6F0290E0001786F5C0E796F8F0E7A6F38
:1013D8003D0E7B6FF7C074F0F8C075F0F9C076F079
:1013E800FAC077F0E2EC02F074C091F075C092F0A8
:1013F80076C093F077C094F0000E00018D6F000E58
:101408008E6F800E8F6F3F0E906F31EC07F08DC09E
:10141800A6F08EC0A7F08FC0A8F090C0A9F088EC05
:1014280010F0A6C069F1A7C06AF1BB88BB86BB846F
:1014380036EF0AF05FEC14F06CEC0AF059EF0AF0A2
:101448000FEC00F059EF0AF08BEC12F059EF0AF0AC
:101458005FEC13F0FDEC12F059EF0AF00AEC0DF016
:1014680059EF0AF00001EF510101736F746B745169
:10147800000AD8B442EF0AF059EF0AF07351000A93
:10148800D8B41EEF0AF0010AD8B424EF0AF0030A10
:10149800D8B428EF0AF0010AD8B42CEF0AF0070AEA
:1014A800D8B432EF0AF059EF0AF056EC17F0000101
:1014B800F051D8B462EF0AF064EF0AF036EF0AF0A0
:1014C800000EF06FE4EC15F036EF0AF00DEF00F0C7
:1014D80040EC17F00009D8B474EF0AF076EF0AF080
:1014E800D0EF0BF0000E4024D96EDA6A010EDA2232
:1014F800BDEC13F0D00FDF6E000E4024D96EDA6A0F
:10150800010EDA22DA0EDE18D8A48DEF0AF08FEF7A
:101518000AF0CFEF0BF002C166F00001676B66BFFF
:101528006707010100510001606F616B60BF6107CF
:10153800000E636F640E626FACEC16F060C068F06A
:1015480061C069F0010101510001606F616B60BF0A
:101558006107000E636F0A0E626FACEC16F00001B3
:10156800605168276151692366516825EC6F67519E
:101578006921ED6F06C166F0676B66BF67070101F9
:1015880004510001606F616B60BF6107000E636FFB
:10159800640E626FACEC16F060C068F061C069F070
:1015A800010105510001606F616B60BF6107000EAA
:1015B800636F0A0E626FACEC16F000016051682789
:1015C8006151692366516825EA6F67516921EB6F9C
:1015D8000AC166F0676B66BF670701010851000121
:1015E800606F616B60BF6107000E636F640E626FAE
:1015F800ACEC16F060C068F061C069F001010951F7
:101608000001606F616B60BF6107000E636F0A0EB7
:10161800626FACEC16F000016051682761516923D4
:1016280066516825E86F67516921E96F0DC166F059
:10163800676B66BF670701010C510001606F616B42
:1016480060BF6107000E636F0A0E626FACEC16F0A4
:10165800000166516025E06F67516121E16F10C19B
:1016680066F0676B66BF670701010F510001606F85
:10167800616B60BF6107000E636F0A0E626FACECAE
:1016880016F0000166516025DE6F67516121DF6F3A
:1016980013C166F0676B66BF67070101125100014D
:1016A800606F616B60BF6107000E636F0A0E626F47
:1016B800ACEC16F0000166516025D86F67516121C6
:1016C800D96F16C166F0676B66BF670701011551D0
:1016D8000001606F616B60BF6107000E636F0A0EE7
:1016E800626FACEC16F0000166516025DC6F675143
:1016F8006121DD6F19C166F0676B66BF670701017D
:1017080018510001606F616B60BF6107000E636F65
:101718000A0E626FACEC16F0000166516025D66FB8
:1017280067516121D76F1CC166F0676B66BF670799
:1017380001011B510001606F616B60BF6107000E02
:10174800636F0A0E626FACEC16F0000166516025FB
:10175800DA6F67516121DB6F1FC166F0676B66BF87
:10176800670701011E510001606F616B60BF61076F
:10177800000E636F0A0E626FACEC16F00001665142
:101788006025D46F67516121D56F000E406E010E40
:10179800EF6FD0EF0BF0402A1200FBC078F0FCC0CE
:1017A80079F0FDC07AF0FEC07BF036C066F037C035
:1017B80067F038C068F039C069F0000E14EC0EF01C
:1017C80066C074F067C075F068C076F069C077F0DD
:1017D800E2EC02F074C0B0F075C0B1F076C0B2F0BF
:1017E80077C0B3F0000E0001786F000E796F200EFD
:1017F8007A6F410E7B6FB0C074F0B1C075F0B2C0A3
:1018080076F0B3C077F0E2EC02F074C0A6F075C0D1
:10181800A7F076C0A8F077C0A9F088EC10F0A6C0B1
:10182800D2F0A7C0D3F0D2C067F0D3C068F0000EE2
:1018380000016A6F0A0E696F80EC15F000016751AC
:10184800316E000E636F0A0E626FD2C060F0D3C0B3
:1018580061F0A2EC14F060C067F061C068F0000E9F
:1018680000016A6F0A0E696F80EC15F0000167517C
:10187800306E000E636F640E626FD2C060F0D3C02A
:1018880061F0A2EC14F060C067F061C068F0000E6F
:1018980000016A6F0A0E696F80EC15F0000167514C
:1018A8002F6E030E636FE80E626FD2C060F0D3C074
:1018B80061F0A2EC14F060C067F061C068F0000E3F
:1018C80000016A6F0A0E696F80EC15F0000167511C
:1018D8002E6EFBC078F0FCC079F0FDC07AF0FEC037
:1018E8007BF047C166F048C167F049C168F04AC15A
:1018F80069F0000E14EC0EF066C074F067C075F065
:1019080068C076F069C077F0E2EC02F074C0B0F01D
:1019180075C0B1F076C0B2F077C0B3F0000E000128
:10192800786F000E796FC80E7A6F420E7B6FB0C069
:1019380074F0B1C075F0B2C076F0B3C077F0E2ECE5
:1019480002F074C0A6F075C0A7F076C0A8F077C002
:10195800A9F088EC10F0A6C0D2F0A7C0D3F0D2C08E
:1019680067F0D3C068F0000E00016A6F0A0E696F55
:1019780080EC15F0000167512D6E000E636F0A0EA2
:10198800626FD2C060F0D3C061F0A2EC14F060C006
:1019980067F061C068F0000E00016A6F0A0E696F97
:1019A80080EC15F0000167512C6E000E636F640E19
:1019B800626FD2C060F0D3C061F0A2EC14F060C0D6
:1019C80067F061C068F0000E00016A6F0A0E696F67
:1019D80080EC15F0000167512B6E030E636FE80E63
:1019E800626FD2C060F0D3C061F0A2EC14F060C0A6
:1019F80067F061C068F0000E00016A6F0A0E696F37
:101A080080EC15F0000167512A6E12000001C651E2
:101A1800B06FC751B16FB26BB36BCE51B05DCF51E0
:101A2800B159D051B259D151B359D8A01EEF0DF0C8
:101A380020EF0DF055EF0DF0F7C078F0F8C079F011
:101A4800F9C07AF0FAC07BF04BC174F04CC175F064
:101A58004DC176F04EC177F0E2EC02F074C091F01F
:101A680075C092F076C093F077C094F0000E000134
:101A78008D6F000E8E6F800E8F6F3F0E906F31EC62
:101A880007F08DC0A6F08EC0A7F08FC0A8F090C058
:101A9800A9F088EC10F0A6C0F5F0A7C0F6F088EF22
:101AA8000DF0F7C078F0F8C079F0F9C07AF0FAC014
:101AB8007BF04FC174F050C175F051C176F052C13E
:101AC80077F0E2EC02F074C091F075C092F076C045
:101AD80093F077C094F0000E00018D6F000E8E6FAA
:101AE800800E8F6F3F0E906F31EC07F08DC0A6F01F
:101AF8008EC0A7F08FC0A8F090C0A9F088EC10F0B5
:101B0800A6C0F5F0A7C0F6F00001C651C825B06F11
:101B1800C751C921B16FB26BB36BB051CE5DB15132
:101B2800CF59B251D059B351D159D8A09EEF0DF029
:101B3800A0EF0DF0ACEF0DF0BB92BB90000E4C6E19
:101B4800000ECE6F000ECF6F000ED06F000ED16F5B
:101B5800E451B06FE551B16FB26BB36BB051CA5D70
:101B6800B151CB59B251CC59B351CD59D8A0BFEFCF
:101B78000DF0C1EF0DF0DCEF0DF0D890E435B06F4B
:101B8800E535B16FB26BB36BB051CA5DB151CB598A
:101B9800B251CC59B351CD59D8B0D5EF0DF0D7EFDC
:101BA8000DF0DCEF0DF0010E466EBC8CFEEF0DF073
:101BB800D890E435B06FE535B16FB26BB36BB05107
:101BC800CA5DB151CB59B251CC59B351CD59D8A0F6
:101BD800F0EF0DF0F2EF0DF0FEEF0DF0BC9EBC9CA7
:101BE800000E476E000ECA6F000ECB6F000ECC6F52
:101BF800000ECD6F4C50D8A404EF0EF006EF0EF097
:101C080013EF0EF04750D8A40CEF0EF00EEF0EF0C5
:101C180013EF0EF0000EEE6FBA94000EEF6F120085
:101C280000016E6F00016E51D8B41DEF0EF01FEF6A
:101C38000EF041EF0EF069BF26EF0EF024EF0EF024
:101C480041EF0EF066C06AF067C06BF068C06CF0D8
:101C580069C06DF06A1F6B1F6C1F6D1F6A2B000E29
:101C68006B236C236D236AC070F06BC071F06CC07D
:101C780072F06DC073F049EF0EF066C070F067C087
:101C880071F068C072F069C073F06651671168112D
:101C98006911D8A452EF0EF054EF0EF05EEF0EF07B
:101CA800000E666F000E676F000E686F000E696F9A
:101CB800EFEF0EF0960E6F6F68EF0EF06F2BD89067
:101CC8007333723371337033000E70156A6F000E00
:101CD80071156B6F000E72156C6FFE0E73156D6FBC
:101CE8006A516B116C116D11D8A47DEF0EF07FEF66
:101CF8000EF062EF0EF08DEF0EF06F2B010E7027D5
:101D0800000E712372237323D890733372337133A7
:101D18007033000E70156A6F000E71156B6F000E30
:101D280072156C6FFF0E73156D6F6A516B116C1124
:101D38006D11D8A4A2EF0EF0A4EF0EF081EF0EF013
:101D4800ACEF0EF06F07D890703771377237733772
:101D580072BFB1EF0EF0B3EF0EF0BBEF0EF0020E54
:101D68006F61B9EF0EF0BBEF0EF0A6EF0EF06FB19A
:101D7800C0EF0EF0C2EF0EF0C3EF0EF0729FD890D6
:101D88006F336FC06AF06B6B6C6B6D6B6AC06DF014
:101D98006C6B6B6B6A6B6A5170136B5171136C517E
:101DA80072136D5173136E51D8B4DDEF0EF0DFEF7F
:101DB8000EF0E7EF0EF069BFE6EF0EF0E4EF0EF07D
:101DC800E7EF0EF0738F70C066F071C067F072C0F5
:101DD80068F073C069F01200096E0950D8B4F7EFC3
:101DE8000EF0F9EF0EF01BEF0FF004BE00EF0FF04E
:101DF800FEEF0EF01BEF0FF001C005F002C006F079
:101E080003C007F004C008F0051E061E071E081EC2
:101E1800052A000E06220722082205C00BF006C07C
:101E28000CF007C00DF008C00EF023EF0FF001C052
:101E38000BF002C00CF003C00DF004C00EF001500E
:101E4800021003100410D8A42CEF0FF02EEF0FF09F
:101E580038EF0FF0000E016E000E026E000E036EDA
:101E6800000E046EC9EF0FF0960E0A6E42EF0FF0E7
:101E78000A2AD8900E320D320C320B32000E0B1497
:101E8800056E000E0C14066E000E0D14076EFE0E85
:101E98000E14086E0550061007100810D8A457EF46
:101EA8000FF059EF0FF03CEF0FF067EF0FF00A2A31
:101EB800010E0B26000E0C220D220E22D8900E3297
:101EC8000D320C320B32000E0B14056E000E0C1482
:101ED800066E000E0D14076EFF0E0E14086E0550E8
:101EE800061007100810D8A47CEF0FF07EEF0FF053
:101EF8005BEF0FF086EF0FF00A06D8900B360C3622
:101F08000D360E360DBE8BEF0FF08DEF0FF095EFFF
:101F18000FF0020E0A6093EF0FF095EF0FF080EFCD
:101F28000FF00AB09AEF0FF09CEF0FF09DEF0FF053
:101F38000D9ED8900A320AC005F0066A076A086A38
:101F480005C008F0076A066A056A05500B120650B4
:101F58000C1207500D1208500E120950D8B4B7EFE2
:101F68000FF0B9EF0FF0C1EF0FF004BEC0EF0FF0A4
:101F7800BEEF0FF0C1EF0FF00E8E0BC001F00CC0DA
:101F880002F00DC003F00EC004F012003901A49154
:101F98004FC001F050C002F0D8EC16F04C50D8B445
:101FA800D8EF0FF0DAEF0FF0E0EF0FF0010E322666
:101FB800000E3322342235220001F551266EF651E7
:101FC800276E286A296A3250265C335027583450C5
:101FD800285835502958D8B0F4EF0FF0F6EF0FF025
:101FE80010EF10F0BBB2FBEF0FF0FEEF0FF0010E99
:101FF800FFEF0FF0000EFF0A266E2646BB5026188C
:10200800FD0B2618BB6E000E326E000E336E000EEE
:10201800346E000E356E4A2A010E4A6416EF10F02F
:1020280018EF10F087EF10F0492A010E49641FEFEE
:1020380010F021EF10F038EF10F04B50D8A427EF34
:1020480010F029EF10F031EF10F0010E3626000ED7
:1020580037223822392236EF10F03606000E375A6A
:10206800385A395A000E496E36C001F037C002F0AE
:1020780038C003F039C004F0000EF0EC0EF001C0D7
:102088001AF002C01BF003C01CF004C01DF0000EC3
:10209800056E000E066EB40E076E430E086E51C034
:1020A80001F052C002F053C003F054C004F00AEC2F
:1020B80005F001C01EF002C01FF003C020F004C0EC
:1020C80021F08FEC11F0D8A06CEF10F06EEF10F04B
:1020D8007EEF10F04B50D8A474EF10F076EF10F0AC
:1020E8007EEF10F0000E366E000E376E000E386E62
:1020F800000E396E010E0001CE27000ECF23D0232B
:10210800D123000E4A6E12000001A835A935AF6F21
:10211800AF51D8A492EF10F094EF10F09EEF10F0AA
:10212800000EA66F000EA76F000EA86F000EA96F15
:102138000BEF11F0A6C0AAF0A7C0ABF0A8C0ACF096
:10214800A9C0ADF0200EAEEF10F0D890AD33AC338F
:10215800AB33AA33E82EA9EF10F0AA51AE6FA88FBF
:10216800FF0EA617FF0EA717FF0EA817000EA91738
:10217800960EAF5FAFBFC5EF10F0C3EF10F0DBEF07
:1021880010F0AF51800A970FD8B0CDEF10F0CFEF15
:1021980010F0D1EF10F094EF10F0D890A933A833D5
:1021A800A733A633AF3FD1EF10F0F3EF10F01F0EB7
:1021B800AF65E1EF10F0E3EF10F0EBEF10F094EF04
:1021C80010F0D890A637A737A837A937AF07AF516F
:1021D800D8A4F1EF10F0F3EF10F0E5EF10F0AE51E6
:1021E800D8B4F9EF10F0FBEF10F003EF11F0A91FCE
:1021F800A81FA71FA66D000EA723A823A923A6C062
:10220800A6F0A7C0A7F0A8C0A8F0A9C0A9F012001E
:102218001C341D34236E2350D8A415EF11F017EF8A
:1022280011F021EF11F0000E1A6E000E1B6E000E59
:102238001C6E000E1D6E8EEF11F01AC01EF01BC032
:102248001FF01CC020F01DC021F0200E31EF11F04E
:10225800D890213220321F321E32E82E2CEF11F096
:102268001E50226E1C8EFF0E1A16FF0E1B16FF0E36
:102278001C16000E1D16960E235E23BE48EF11F0A5
:1022880046EF11F05EEF11F02350800A970FD8B097
:1022980050EF11F052EF11F054EF11F017EF11F069
:1022A800D8901D321C321B321A32233E54EF11F0E3
:1022B80076EF11F01F0E236464EF11F066EF11F052
:1022C8006EEF11F017EF11F0D8901A361B361C3646
:1022D8001D3623062350D8A474EF11F076EF11F0C1
:1022E80068EF11F02250D8B47CEF11F07EEF11F0B6
:1022F80086EF11F01D1E1C1E1B1E1A6C000E1B22E1
:102308001C221D221AC01AF01BC01BF01CC01CF096
:102318001DC01DF01200000E1A14226E000E1B14B0
:10232800236E800E1C14246E7F0E1D14256E225001
:10233800231024102510D8A4A4EF11F0A6EF11F053
:10234800AEEF11F0000E1A6E000E1B6E000E1C6E22
:10235800000E1D6E000E1E14226E000E1F14236E3A
:10236800800E2014246E7F0E2114256E2250231017
:1023780024102510D8A4C3EF11F0C5EF11F0CDEF4C
:1023880011F0000E1E6E000E1F6E000E206E000E65
:10239800216E1DAED2EF11F0D4EF11F0DDEF11F088
:1023A8001A6C1B1ED8B01B2A1C1ED8B01C2A800E03
:1023B8001D5621AEE2EF11F0E4EF11F0EDEF11F050
:1023C8001E6C1F1ED8B01F2A201ED8B0202A800ECF
:1023D8002156000E1A1A000E1B1A000E1C1A800E27
:1023E8001D1A000E1E1A000E1F1A000E201A800E4B
:1023F800211A1E501A5C1F501B5820501C5821507F
:102408001D58D8B00AEF12F00CEF12F00FEF12F0CF
:10241800D89010EF12F0D88012003901A69D4DC057
:1024280001F04EC002F0C2EC16F04750D8B41FEFCE
:1024380012F021EF12F028EF12F0010E01014327EC
:10244800000E44234523462301016951036E6A5156
:10245800046E056A066A4351035C445104584551A9
:10246800055846510658D8B03CEF12F03EEF12F02E
:1024780059EF12F0BCBE43EF12F046EF12F0010E16
:1024880047EF12F0000EFF0A036E03320332BC500E
:1024980003187F0B0318BC6E000E436F000E446FC9
:1024A800000E456F000E466F452A010E45645FEF2A
:1024B80012F061EF12F08AEF12F0442A010E446420
:1024C80068EF12F06AEF12F081EF12F04650D8A4CC
:1024D80070EF12F072EF12F07AEF12F0010E472748
:1024E800000E482349234A237FEF12F04707000EC6
:1024F800485B495B4A5B000E446E010E0001CA2727
:10250800000ECB23CC23CD23000E456E1200000114
:10251800E651606FE751616F626B636B6051CE5D2E
:102528006151CF596251D0596351D159D8A09FEF09
:1025380012F0A1EF12F0FCEF12F0BA94BB92000E69
:102548004C6EED5107E1B40EEC5DD8B0AEEF12F071
:10255800B0EF12F0D4EF12F0B40EEC25606F000E5D
:10256800ED21616F6051E85D6151E959D8B0BFEF65
:1025780012F0C1EF12F0D0EF12F0E851EC5DE95122
:10258800ED59D8B0CAEF12F0CCEF12F0D0EF12F03C
:10259800000E4B6EF8EF12F0010E4B6EF8EF12F0D2
:1025A8004C0E606FFF0E616FECC062F0EDC063F01F
:1025B8006051622761516323E851625DE9516359B3
:1025C800D8B0E9EF12F0EBEF12F0CCEF12F0EC51CB
:1025D800E85DED51E959D8B0F4EF12F0F6EF12F0DA
:1025E800CCEF12F0D0EF12F0000E466E030EEF6F34
:1025F8001200CAAC02EF13F004EF13F05EEF13F011
:102608004B50D8A40AEF13F00CEF13F00FEF13F0B0
:10261800BB9010EF13F0BB80BC9CBB82BC8EBA840D
:10262800F7C078F0F8C079F0F9C07AF0FAC07BF01A
:1026380053C174F054C175F055C176F056C177F0A6
:10264800E2EC02F074C091F075C092F076C093F09D
:1026580077C094F0000E00018D6F000E8E6F800E13
:102668008F6F3F0E906F31EC07F08DC0A6F08EC0D3
:10267800A7F08FC0A8F090C0A9F088EC10F0A6C011
:1026880069F1A7C06AF1000E0001CE6F000ECF6F8E
:10269800000ED06F000ED16F000ECA6F000ECB6F08
:1026A800000ECC6F000ECD6F010E4C6E010E476E02
:1026B800040EEF6F12004850D8B465EF13F067EFBF
:1026C80013F0BCEF13F04BEC17F00009D8B46FEF20
:1026D80013F071EF13F0BCEF13F0D00E0001606F30
:1026E800FF0E616F0EEC14F00001626F636B6051B6
:1026F800622761516323D8903A34D96E3B34DA6E3D
:10270800210ED926010EDA2260008BF1DEFF60006F
:102718008FF1DDFF3BBE9AEF13F03B5009E10F0E3E
:102728003A5CD8A09AEF13F09CEF13F0BAEF13F0CD
:10273800010133510A0DF3503525FB0F3F6E3FBEA3
:10274800AAEF13F0A8EF13F0ADEF13F03F501808FD
:102758003F6E37510A0DF35039253E6E000E3B6E21
:10276800000E3A6E000E486EBCEF13F03A4A3B2A50
:1027780012003901A3A7C3EF13F0C5EF13F0BDEFA3
:1027880013F0000E436E3D01F9A7CDEF13F0CFEF24
:1027980013F0DEEF13F0438202D8DEEF13F00500EA
:1027A8000101FA6E6551FD6E6651FE6EF850FF6EBE
:1027B800FA5012003D01F9A3E4EF13F0E6EF13F02D
:1027C800F5EF13F0438402D8F5EF13F0050001018B
:1027D800FA6E6351FD6E6451FE6EF850FF6EFA504A
:1027E80012004350D8B4FBEF13F0FDEF13F00BEFDA
:1027F80014F002D80BEF14F005000101FA6E6151D4
:10280800FD6E6251FE6EF850FF6EFA5012003D01E7
:10281800E85112003901A6A514EF14F016EF14F0D0
:102828000EEF14F0000E426E3D01E1A71EEF14F00A
:1028380020EF14F02FEF14F0428202D82FEF14F09B
:1028480005000101FA6E5F51FD6E6051FE6EF85091
:10285800FF6EFA5012003D01E1A335EF14F037EF97
:1028680014F046EF14F0428402D846EF14F0050045
:102878000101FA6E5D51FD6E5E51FE6EF850FF6EFD
:10288800FA5012004250D8B44CEF14F04EEF14F046
:102898005CEF14F002D85CEF14F005000101FA6E49
:1028A8005B51FD6E5C51FE6EF850FF6EFA501200DF
:1028B8003D01D0511200CAAC64EF14F066EF14F079
:1028C8006EEF14F0BB90BA84000E4B6E010E4C6E86
:1028D80080EF14F0CCA073EF14F075EF14F07DEFD7
:1028E80014F0BB80BA84010E4B6E010E4C6E80EF63
:1028F80014F0000E4C6EBA94CCA285EF14F087EF5A
:1029080014F08FEF14F0BC9CBA84000E466E010ED2
:10291800476EA1EF14F0CCA494EF14F096EF14F0E6
:102928009EEF14F0BC8CBA84010E466E010E476E01
:10293800A1EF14F0000E476EBA941200000E0001C9
:10294800666F000E656F62516311D8B4AEEF14F074
:10295800B0EF14F0D8EF14F0010E646FB8EF14F074
:10296800D89062376337642B63AFBDEF14F0BFEFC5
:1029780014F0B4EF14F0D890653766376251605D93
:1029880063516159D8A0CBEF14F0CDEF14F0D2EF1A
:1029980014F06251605F6351615B6581D890633365
:1029A8006233642FBFEF14F065C060F066C061F059
:1029B8001200000EBA6E000EBB6E000EBC6EF30E57
:1029C800C26EC00EC36E370EC46E000E3A01606F41
:1029D800C00E506F330E406F000E816F000E516FA6
:1029E800000E416F000E616F000E5A6F000E5B6F94
:1029F800000E6A6F000E6B6F000E426F000E526F72
:102A0800000E626F43695369636944695469646974
:102A1800080E846F140EE86F130E136F150EE56F12
:102A28001200000E3D01EC6F000EED6F000EEE6F10
:102A3800000EEF6F000EF06F000EF16FB00EF26F28
:102A4800800EF36F000EF46F8A0EF56F000EF66FAE
:102A5800000EF76F000EF86F000EF96F000EFA6F98
:102A6800200E0001606F2F0E616F74EC17F01E0EC0
:102A78000001606F2F0E616F6FEC17F0220E0001DE
:102A8800606F2F0E616F79EC17F0000E436E120025
:102A9800390193AF52EF15F054EF15F05DEF15F0D3
:102AA800A3AF59EF15F05BEF15F05DEF15F093EC60
:102AB80016F0390196AD63EF15F065EF15F06EEF7E
:102AC80015F0A6AD6AEF15F06CEF15F06EEF15F086
:102AD80011EC12F0390194A174EF15F076EF15F0AE
:102AE8007FEF15F0A4A17BEF15F07DEF15F07FEFD8
:102AF80015F0CAEC0FF01100000169516A11D8B441
:102B080088EF15F08AEF15F0AEEF15F0010E6B6F38
:102B180092EF15F0D89069376A376B2B6AAF97EF49
:102B280015F099EF15F08EEF15F06951675D6A5150
:102B38006859D8A0A2EF15F0A4EF15F0A8EF15F08A
:102B48006951675F6A51685BD8906A3369336B2F44
:102B580099EF15F067C067F068C068F01200000EC2
:102B68003D01D46F000ED66F000ED86FB00EDA6F2D
:102B7800800EDB6F000EDC6F400EDD6F030EDE6F24
:102B8800000EDF6F000EE06F000EE16F000EE26FC7
:102B9800260E0001606F2F0E616F65EC17F0240E92
:102BA8000001606F2F0E616F60EC17F0280E0001B6
:102BB800606F2F0E616F6AEC17F0000E426E120004
:102BC800D1EC0BF02E50300F26EC17F02F50300FB1
:102BD80026EC17F03050300F26EC17F03150300F3C
:102BE80026EC17F00A0E26EC17F02A50300F26ECC8
:102BF80017F02B50300F26EC17F02C50300F26EC26
:102C080017F02D50300F26EC17F02C0E26EC17F08D
:102C18001200000EA76E000EA86E010EA96EA56820
:102C2800EC0EA46E3901A69DA4506F0094FE62F0CC
:102C38000001636B62C063F0626B62114D6E635199
:102C48004E6E3901968D000E0001606F000E616FA7
:102C58007EEC17F0310EA66E1200000EB36E000E59
:102C6800B46E010EB56EB168EC0EB06E3901A49168
:102C7800B0506F00C4FE62F00001636B62C063F085
:102C8800626B62114F6E6351506E39019481000E70
:102C98000001606F000E616F83EC17F0310EB26EA9
:102CA8001200000161BF63EF16F0615106E1600593
:102CB800D8B061EF16F063EF16F071EF16F060C050
:102CC80062F061C063F0621F631F624B632B62C0D6
:102CD80060F063C061F075EF16F060C060F061C02D
:102CE80061F0120000EE00F1570EEE6AE806FDE111
:102CF80000EEB6F03B0EEE6AE806FDE100EE2AF0C3
:102D0800230EEE6AE806FDE1080ED56E000ED66EBB
:102D1800000ED76E000EF86E0001FFEF08F03901C3
:102D2800A39F3C4A3D2A3D5009E1140E3C5CD8A0C3
:102D3800A0EF16F0A2EF16F0A8EF16F0000E3D6E09
:102D4800000E3C6E010E486E010E0001F06F12007D
:102D58000001605162036F00CCFF64F06F00D0FF88
:102D680065F060516303F350652761516203F350C6
:102D7800652764C060F065C061F01200A6A4C7EFC3
:102D880016F0C9EF16F0D2EF16F0A6900250A56E15
:102D9800600007F0A4FFA680D7EF16F00250A56EDA
:102DA800600007F0A4FF1200B2A4DDEF16F0DFEF19
:102DB80016F0E8EF16F0B2900250B16E600007F01E
:102DC800B0FFB280EDEF16F00250B16E600007F070
:102DD800B0FF12008DEC17F014EC17F0DDEC14F0D6
:102DE80034EC17F00DEC16F031EC16F001EC17F09E
:102DF800B3EC15F015EC15F012004D0EB96E170E68
:102E0800B76E000EB66E3901A39F938F000E0001B6
:102E1800606F000E616F88EC17F0810EB86E1200BB
:102E2800000E3901C06F000EC16F000EC26F000E98
:102E3800C36F000EC46F000EC56F000EC66F000E84
:102E4800C76F12000001606F3901A3A92EEF17F0B8
:102E580030EF17F028EF17F0600083F1EAFD120059
:102E6800600E3901D96F000EDB6F000EDD6F060EA4
:102E7800DF6F000EDE6F12003901A3B746EF17F0BF
:102E880049EF17F0010E4AEF17F0000E1200390152
:102E9800A6B551EF17F054EF17F0010E55EF17F0E4
:102EA800000E1200CAAE5BEF17F05DEF17F05FEF90
:102EB80017F0BB8ABA86120060C05DF161C05EF18E
:102EC800120060C05FF161C060F1120060C05BF188
:102ED80061C05CF1120060C063F161C064F112006E
:102EE80060C065F161C066F1120060C061F161C047
:102EF80062F1120060C067F161C068F1120060C041
:102F08006DF161C06EF1120060C06BF161C06CF1CF
:102F18001200D29A120012001200120012001200BF
:022F2800120095
:020000040030CA
:0A000000ECFFF7FF9FFFFFFFFFFF7B
:00000001FF
